{
    "contractName": "Bets",
    "abi": [
        {
            "inputs": [
                {
                    "internalType": "uint256",
                    "name": "",
                    "type": "uint256"
                }
            ],
            "name": "betIDs",
            "outputs": [
                {
                    "internalType": "uint256",
                    "name": "",
                    "type": "uint256"
                }
            ],
            "stateMutability": "view",
            "type": "function"
        }
    ],
    "bytecode": "6080604052348015600f57600080fd5b5060af8061001e6000396000f3fe6080604052348015600f57600080fd5b506004361060285760003560e01c8063bc8b351214602d575b600080fd5b604760048036036020811015604157600080fd5b50356059565b60408051918252519081900360200190f35b60008181548110606857600080fd5b60009182526020909120015490508156fea264697066735822122065f10e3d719675b74fb031073a8f8589bbd97914994e5c562c95537552693be164736f6c63430007040033",
    "sourcePath": "/home/eric/Documents/blockchain_projects/CryptoBets/contracts/Bets.sol",
    "compiler": {
        "name": "solc",
        "version": "0.7.4+commit.3f05b770"
    },
    "functionHashes": {
        "betIDs(uint256)": "bc8b3512"
    },
    "gasEstimates": {
        "creation": {
            "codeDepositCost": "35000",
            "executionCost": "87",
            "totalCost": "35087"
        },
        "external": {
            "betIDs(uint256)": "1909"
        }
    }
}