{
  "contractName": "Bets",
  "abi": [
    {
      "constant": true,
      "inputs": [
        {
          "internalType": "uint256",
          "name": "",
          "type": "uint256"
        }
      ],
      "name": "betIDs",
      "outputs": [
        {
          "internalType": "uint256",
          "name": "",
          "type": "uint256"
        }
      ],
      "payable": false,
      "stateMutability": "view",
      "type": "function"
    },
    {
      "constant": true,
      "inputs": [
        {
          "internalType": "uint256",
          "name": "",
          "type": "uint256"
        }
      ],
      "name": "pbetIDs",
      "outputs": [
        {
          "internalType": "uint256",
          "name": "",
          "type": "uint256"
        }
      ],
      "payable": false,
      "stateMutability": "view",
      "type": "function"
    },
    {
      "constant": false,
      "inputs": [
        {
          "internalType": "uint256",
          "name": "_betID",
          "type": "uint256"
        },
        {
          "internalType": "string",
          "name": "_betDesc",
          "type": "string"
        },
        {
          "internalType": "string",
          "name": "_betType",
          "type": "string"
        },
        {
          "internalType": "uint256[]",
          "name": "_options",
          "type": "uint256[]"
        },
        {
          "internalType": "string",
          "name": "_img",
          "type": "string"
        }
      ],
      "name": "newBet",
      "outputs": [
        {
          "internalType": "bool",
          "name": "",
          "type": "bool"
        }
      ],
      "payable": false,
      "stateMutability": "nonpayable",
      "type": "function"
    },
    {
      "constant": false,
      "inputs": [
        {
          "internalType": "uint256",
          "name": "_pbetID",
          "type": "uint256"
        },
        {
          "internalType": "uint256",
          "name": "_betID",
          "type": "uint256"
        },
        {
          "internalType": "uint256",
          "name": "_amount",
          "type": "uint256"
        },
        {
          "internalType": "uint256",
          "name": "_boptions",
          "type": "uint256"
        }
      ],
      "name": "playBet",
      "outputs": [
        {
          "internalType": "bool",
          "name": "",
          "type": "bool"
        }
      ],
      "payable": false,
      "stateMutability": "nonpayable",
      "type": "function"
    }
  ],
  "bytecode": "0x6080604052600280546001600160a01b0319163317905534801561002257600080fd5b5061059b806100326000396000f3fe608060405234801561001057600080fd5b506004361061004c5760003560e01c80630effc8fe14610051578063108e1ca814610080578063bc8b3512146102cb578063fa142f48146102e8575b600080fd5b61006e6004803603602081101561006757600080fd5b5035610317565b60408051918252519081900360200190f35b6102b7600480360360a081101561009657600080fd5b81359190810190604081016020820135600160201b8111156100b757600080fd5b8201836020820111156100c957600080fd5b803590602001918460018302840111600160201b831117156100ea57600080fd5b91908080601f0160208091040260200160405190810160405280939291908181526020018383808284376000920191909152509295949360208101935035915050600160201b81111561013c57600080fd5b82018360208201111561014e57600080fd5b803590602001918460018302840111600160201b8311171561016f57600080fd5b91908080601f0160208091040260200160405190810160405280939291908181526020018383808284376000920191909152509295949360208101935035915050600160201b8111156101c157600080fd5b8201836020820111156101d357600080fd5b803590602001918460208302840111600160201b831117156101f457600080fd5b9190808060200260200160405190810160405280939291908181526020018383602002808284376000920191909152509295949360208101935035915050600160201b81111561024357600080fd5b82018360208201111561025557600080fd5b803590602001918460018302840111600160201b8311171561027657600080fd5b91908080601f016020809104026020016040519081016040528093929190818152602001838380828437600092019190915250929550610335945050505050565b604080519115158252519081900360200190f35b61006e600480360360208110156102e157600080fd5b5035610415565b6102b7600480360360808110156102fe57600080fd5b5080359060208101359060408101359060600135610422565b6001818154811061032457fe5b600091825260209091200154905081565b60008581526003602090815260408220855161035392870190610491565b506000868152600360209081526040909120865161037992600190920191880190610491565b506000868152600360209081526040909120835161039f92600490920191850190610491565b50600086815260036020818152604090922085516103c59391909201919086019061050f565b505060008581526003602052604081206002018190558054600181810183559180527f290decd9548b62a8d60345a988386fc84ba6bc95484008f6362f93160ef3e5630186905595945050505050565b6000818154811061032457fe5b6000848152600460205260408120848155600180820185905560028201849055600390910180546001600160a01b0319163317905580548082018255918190527fb10e2d527612073b26eecdfd717e6a320cf44b4afac2b0732d9fcbe2b7fa0cf6909101859055949350505050565b828054600181600116156101000203166002900490600052602060002090601f016020900481019282601f106104d257805160ff19168380011785556104ff565b828001600101855582156104ff579182015b828111156104ff5782518255916020019190600101906104e4565b5061050b929150610549565b5090565b8280548282559060005260206000209081019282156104ff57916020028201828111156104ff5782518255916020019190600101906104e4565b61056391905b8082111561050b576000815560010161054f565b9056fea265627a7a72315820acbe486722f2ecde3d31636d5cd1de0fe243fbd53125bf6cf8165fb45feba64f64736f6c63430005100032",
  "source": "// SPDX-License-Identifier: MIT\npragma solidity >=0.4.22 <0.8.0;\n\ncontract Bets {\n    struct Bet {\n        string betType;\n        string betDesc;\n        uint256 winOptions;\n        uint256[] options;\n        string img;\n    }\n\n    struct PlaceBets {\n        uint256 betID;\n        uint256 amount;\n        uint256 boptions;\n        address who;\n    }\n\n    uint256[] public betIDs;\n    uint256[] public pbetIDs;\n    address owner = msg.sender;\n\n    mapping(uint256 => Bet) private BetStruct;\n    mapping(uint256 => PlaceBets) private PlaceBetStruct;\n\n\n\nfunction newBet(uint256 _betID, string memory _betDesc, string memory _betType, uint256[] memory _options  ,string  memory _img ) public returns (bool){\n   BetStruct[_betID].betType = _betType; \n   BetStruct[_betID].betDesc = _betDesc;\n   BetStruct[_betID].img = _img; \n   BetStruct[_betID].options = _options;\n   BetStruct[_betID].winOptions = 0; \n   betIDs.push(_betID);\n   return true;  \n}\n\nfunction playBet(uint256 _pbetID,uint256 _betID, uint256 _amount,uint256 _boptions ) public  returns (bool){\n    PlaceBetStruct[_pbetID].betID = _betID;\n    PlaceBetStruct[_pbetID].amount = _amount;\n    PlaceBetStruct[_pbetID].boptions = _boptions;\n    PlaceBetStruct[_pbetID].who = msg.sender;\n    pbetIDs.push(_pbetID);\n   return true;\n}\n\n\n}\n",
  "sourcePath": "/home/eric/Documents/blockchain_projects/CryptoBets/contracts/Bets.sol",
  "compiler": {
    "name": "solc",
    "version": "0.5.16+commit.9c3226ce.Emscripten.clang"
  },
  "schemaVersion": "3.2.3",
  "updatedAt": "2021-02-18T03:23:24.073Z",
  "devdoc": {
    "methods": {}
  },
  "userdoc": {
    "methods": {}
  }
}