{
  "contractName": "SimpleBank",
  "abi": [
    {
      "inputs": [],
      "payable": false,
      "stateMutability": "nonpayable",
      "type": "constructor"
    },
    {
      "anonymous": false,
      "inputs": [
        {
          "indexed": false,
          "internalType": "address",
          "name": "accountAdress",
          "type": "address"
        },
        {
          "indexed": false,
          "internalType": "uint256",
          "name": "amount",
          "type": "uint256"
        }
      ],
      "name": "LogDepositMade",
      "type": "event"
    },
    {
      "constant": true,
      "inputs": [],
      "name": "owner",
      "outputs": [
        {
          "internalType": "address",
          "name": "",
          "type": "address"
        }
      ],
      "payable": false,
      "stateMutability": "view",
      "type": "function"
    },
    {
      "constant": false,
      "inputs": [],
      "name": "deposit",
      "outputs": [
        {
          "internalType": "uint256",
          "name": "",
          "type": "uint256"
        }
      ],
      "payable": true,
      "stateMutability": "payable",
      "type": "function"
    },
    {
      "constant": false,
      "inputs": [
        {
          "internalType": "uint256",
          "name": "withdrawAmount",
          "type": "uint256"
        }
      ],
      "name": "withdraw",
      "outputs": [
        {
          "internalType": "uint256",
          "name": "remainingBal",
          "type": "uint256"
        }
      ],
      "payable": false,
      "stateMutability": "nonpayable",
      "type": "function"
    },
    {
      "constant": true,
      "inputs": [],
      "name": "balance",
      "outputs": [
        {
          "internalType": "uint256",
          "name": "",
          "type": "uint256"
        }
      ],
      "payable": false,
      "stateMutability": "view",
      "type": "function"
    }
  ],
  "bytecode": "0x608060405234801561001057600080fd5b50600180546001600160a01b0319163317905561020f806100326000396000f3fe60806040526004361061003f5760003560e01c80632e1a7d4d146100445780638da5cb5b14610080578063b69ef8a8146100b1578063d0e30db0146100c6575b600080fd5b34801561005057600080fd5b5061006e6004803603602081101561006757600080fd5b50356100ce565b60408051918252519081900360200190f35b34801561008c57600080fd5b50610095610140565b604080516001600160a01b039092168252519081900360200190f35b3480156100bd57600080fd5b5061006e61014f565b61006e610162565b336000908152602081905260408120548211156100ea57600080fd5b33600081815260208190526040808220805486900390555184156108fc0291859190818181858888f19350505050158015610129573d6000803e3d6000fd5b505033600090815260208190526040902054919050565b6001546001600160a01b031681565b3360009081526020819052604090205490565b33600090815260208190526040812054348101101561018057600080fd5b336000818152602090815260408051928352349183019190915280517fa8126f7572bb1fdeae5b5aa9ec126438b91f658a07873f009d041ae690f3a1939281900390910190a150336000908152602081905260409020549056fea265627a7a723158200d637b29198221db4e652cbc3250bbdb5b3e35c2169e682f37df97b1323e74f864736f6c63430005100032",
  "source": "// SPDX-License-Identifier: MIT\npragma solidity >=0.4.22 <0.8.0;\n\n\ncontract SimpleBank {\n\n  //like adictionary balances[addess] = unit\n  mapping(address=>uint) private balances;\n  address public owner;\n//Events - publicize actions to external listeners\n  event LogDepositMade(address accountAdress, uint amount);\n \n constructor() public{\n   owner = msg.sender;\n }\n\n\n function deposit() public payable returns (uint){\n   require((balances[msg.sender] + msg.value)>= balances[msg.sender]);\n   balances[msg.sender] + msg.value;\n   emit LogDepositMade(msg.sender,msg.value);\n   return balances[msg.sender];\n }\n\n\n function withdraw(uint withdrawAmount) public returns (uint remainingBal) {\n        require(withdrawAmount <= balances[msg.sender]);\n        balances[msg.sender] -= withdrawAmount;\n        msg.sender.transfer(withdrawAmount);\n\n        return balances[msg.sender];\n    }\n\n     function balance() view public returns (uint) {\n        return balances[msg.sender];\n    }\n\n}",
  "sourcePath": "/home/eric/Documents/blockchain_projects/CryptoBets/contracts/SimpleStorage.sol",
  "compiler": {
    "name": "solc",
    "version": "0.5.16+commit.9c3226ce.Emscripten.clang"
  },
  "schemaVersion": "3.2.3",
  "updatedAt": "2021-02-18T03:23:24.075Z",
  "devdoc": {
    "methods": {}
  },
  "userdoc": {
    "methods": {}
  }
}